{
  "contractName": "YannTokenSale",
  "abi": [
    {
      "inputs": [
        {
          "internalType": "contract YannToken",
          "name": "_token",
          "type": "address"
        }
      ],
      "stateMutability": "nonpayable",
      "type": "constructor"
    },
    {
      "anonymous": false,
      "inputs": [
        {
          "indexed": false,
          "internalType": "address",
          "name": "_buyer",
          "type": "address"
        },
        {
          "indexed": false,
          "internalType": "uint256",
          "name": "_amount",
          "type": "uint256"
        }
      ],
      "name": "Sell",
      "type": "event"
    },
    {
      "anonymous": false,
      "inputs": [
        {
          "indexed": false,
          "internalType": "address",
          "name": "by",
          "type": "address"
        },
        {
          "indexed": false,
          "internalType": "uint256",
          "name": "amount",
          "type": "uint256"
        }
      ],
      "name": "Staked",
      "type": "event"
    },
    {
      "anonymous": false,
      "inputs": [
        {
          "indexed": false,
          "internalType": "address",
          "name": "by",
          "type": "address"
        },
        {
          "indexed": false,
          "internalType": "uint256",
          "name": "amount",
          "type": "uint256"
        }
      ],
      "name": "Withdrawn",
      "type": "event"
    },
    {
      "inputs": [],
      "name": "admin",
      "outputs": [
        {
          "internalType": "address payable",
          "name": "",
          "type": "address"
        }
      ],
      "stateMutability": "view",
      "type": "function",
      "constant": true
    },
    {
      "inputs": [
        {
          "internalType": "address",
          "name": "",
          "type": "address"
        }
      ],
      "name": "hasStaked",
      "outputs": [
        {
          "internalType": "bool",
          "name": "",
          "type": "bool"
        }
      ],
      "stateMutability": "view",
      "type": "function",
      "constant": true
    },
    {
      "inputs": [],
      "name": "name",
      "outputs": [
        {
          "internalType": "string",
          "name": "",
          "type": "string"
        }
      ],
      "stateMutability": "view",
      "type": "function",
      "constant": true
    },
    {
      "inputs": [],
      "name": "owner",
      "outputs": [
        {
          "internalType": "address",
          "name": "",
          "type": "address"
        }
      ],
      "stateMutability": "view",
      "type": "function",
      "constant": true
    },
    {
      "inputs": [
        {
          "internalType": "uint256",
          "name": "",
          "type": "uint256"
        }
      ],
      "name": "stakers",
      "outputs": [
        {
          "internalType": "address",
          "name": "",
          "type": "address"
        }
      ],
      "stateMutability": "view",
      "type": "function",
      "constant": true
    },
    {
      "inputs": [
        {
          "internalType": "address",
          "name": "",
          "type": "address"
        }
      ],
      "name": "stakingBalance",
      "outputs": [
        {
          "internalType": "uint256",
          "name": "",
          "type": "uint256"
        }
      ],
      "stateMutability": "view",
      "type": "function",
      "constant": true
    },
    {
      "inputs": [
        {
          "internalType": "address",
          "name": "",
          "type": "address"
        }
      ],
      "name": "timeOfStakingFor",
      "outputs": [
        {
          "internalType": "uint256",
          "name": "",
          "type": "uint256"
        }
      ],
      "stateMutability": "view",
      "type": "function",
      "constant": true
    },
    {
      "inputs": [],
      "name": "token",
      "outputs": [
        {
          "internalType": "contract YannToken",
          "name": "",
          "type": "address"
        }
      ],
      "stateMutability": "view",
      "type": "function",
      "constant": true
    },
    {
      "inputs": [],
      "name": "tokenPriceUSD",
      "outputs": [
        {
          "internalType": "int256",
          "name": "",
          "type": "int256"
        }
      ],
      "stateMutability": "view",
      "type": "function",
      "constant": true
    },
    {
      "inputs": [],
      "name": "tokensSold",
      "outputs": [
        {
          "internalType": "uint256",
          "name": "",
          "type": "uint256"
        }
      ],
      "stateMutability": "view",
      "type": "function",
      "constant": true
    },
    {
      "inputs": [
        {
          "internalType": "uint256",
          "name": "",
          "type": "uint256"
        }
      ],
      "name": "transaction",
      "outputs": [
        {
          "internalType": "address",
          "name": "buyer",
          "type": "address"
        },
        {
          "internalType": "uint256",
          "name": "amount",
          "type": "uint256"
        }
      ],
      "stateMutability": "view",
      "type": "function",
      "constant": true
    },
    {
      "inputs": [],
      "name": "transactionCount",
      "outputs": [
        {
          "internalType": "uint256",
          "name": "",
          "type": "uint256"
        }
      ],
      "stateMutability": "view",
      "type": "function",
      "constant": true
    },
    {
      "inputs": [],
      "name": "getETHPrice",
      "outputs": [
        {
          "internalType": "int256",
          "name": "",
          "type": "int256"
        }
      ],
      "stateMutability": "view",
      "type": "function",
      "constant": true
    },
    {
      "inputs": [],
      "name": "yannTokenPriceInETH",
      "outputs": [
        {
          "internalType": "int256",
          "name": "",
          "type": "int256"
        }
      ],
      "stateMutability": "view",
      "type": "function",
      "constant": true
    },
    {
      "inputs": [
        {
          "internalType": "uint256",
          "name": "_newPrice",
          "type": "uint256"
        }
      ],
      "name": "modifyTokenBuyPrice",
      "outputs": [
        {
          "internalType": "bool",
          "name": "",
          "type": "bool"
        }
      ],
      "stateMutability": "nonpayable",
      "type": "function"
    },
    {
      "inputs": [
        {
          "internalType": "uint256",
          "name": "_amount",
          "type": "uint256"
        }
      ],
      "name": "buyToken",
      "outputs": [],
      "stateMutability": "payable",
      "type": "function",
      "payable": true
    },
    {
      "inputs": [],
      "name": "endSale",
      "outputs": [],
      "stateMutability": "nonpayable",
      "type": "function"
    },
    {
      "inputs": [],
      "name": "getStakers",
      "outputs": [
        {
          "internalType": "address[]",
          "name": "",
          "type": "address[]"
        }
      ],
      "stateMutability": "view",
      "type": "function",
      "constant": true
    },
    {
      "inputs": [
        {
          "internalType": "uint256",
          "name": "_amount",
          "type": "uint256"
        }
      ],
      "name": "stakeTokens",
      "outputs": [
        {
          "internalType": "bool",
          "name": "",
          "type": "bool"
        }
      ],
      "stateMutability": "nonpayable",
      "type": "function"
    },
    {
      "inputs": [
        {
          "internalType": "uint256",
          "name": "_amount",
          "type": "uint256"
        }
      ],
      "name": "withdrawTokens",
      "outputs": [
        {
          "internalType": "bool",
          "name": "",
          "type": "bool"
        }
      ],
      "stateMutability": "nonpayable",
      "type": "function"
    }
  ],
  "bytecode": "0x60806040526040518060400160405280600981526020017f59616e6e204661726d0000000000000000000000000000000000000000000000815250600090805190602001906200005192919062000201565b5073fe745cab1c32ea2672a5884ed978042ebed42a68600760006101000a81548173ffffffffffffffffffffffffffffffffffffffff021916908373ffffffffffffffffffffffffffffffffffffffff160217905550348015620000b457600080fd5b5060405162002917380380620029178339818101604052810190620000da91906200032f565b739326bfa02add2366b30bacb125260af641031331600b60006101000a81548173ffffffffffffffffffffffffffffffffffffffff021916908373ffffffffffffffffffffffffffffffffffffffff1602179055506005600a8190555080600860006101000a81548173ffffffffffffffffffffffffffffffffffffffff021916908373ffffffffffffffffffffffffffffffffffffffff16021790555033600660006101000a81548173ffffffffffffffffffffffffffffffffffffffff021916908373ffffffffffffffffffffffffffffffffffffffff16021790555033600160006101000a81548173ffffffffffffffffffffffffffffffffffffffff021916908373ffffffffffffffffffffffffffffffffffffffff16021790555050620003c6565b8280546200020f9062000390565b90600052602060002090601f0160209004810192826200023357600085556200027f565b82601f106200024e57805160ff19168380011785556200027f565b828001600101855582156200027f579182015b828111156200027e57825182559160200191906001019062000261565b5b5090506200028e919062000292565b5090565b5b80821115620002ad57600081600090555060010162000293565b5090565b600080fd5b600073ffffffffffffffffffffffffffffffffffffffff82169050919050565b6000620002e382620002b6565b9050919050565b6000620002f782620002d6565b9050919050565b6200030981620002ea565b81146200031557600080fd5b50565b6000815190506200032981620002fe565b92915050565b600060208284031215620003485762000347620002b1565b5b6000620003588482850162000318565b91505092915050565b7f4e487b7100000000000000000000000000000000000000000000000000000000600052602260045260246000fd5b60006002820490506001821680620003a957607f821691505b60208210811415620003c057620003bf62000361565b5b50919050565b61254180620003d66000396000f3fe60806040526004361061015f5760003560e01c80637547c7a3116100c0578063baa2621411610074578063f851a44011610059578063f851a4401461049b578063fc0c546a146104c6578063fd5e6dd1146104f15761015f565b8063baa2621414610433578063c93c8f341461045e5761015f565b80638da5cb5b116100a55780638da5cb5b146103b2578063a607a8d9146103dd578063b77bf600146104085761015f565b80637547c7a314610338578063834dc984146103755761015f565b8063407fcc311161011757806345bc78ab116100fc57806345bc78ab1461029257806346bd0841146102cf578063518ab2a81461030d5761015f565b8063407fcc311461023c57806343352d61146102675761015f565b8063315a095d11610148578063315a095d146101ab578063380d831b146101e85780633e4808e4146101ff5761015f565b806306fdde03146101645780632d296bf11461018f575b600080fd5b34801561017057600080fd5b5061017961052e565b604051610186919061177a565b60405180910390f35b6101a960048036038101906101a491906117d7565b6105bc565b005b3480156101b757600080fd5b506101d260048036038101906101cd91906117d7565b61089c565b6040516101df919061181f565b60405180910390f35b3480156101f457600080fd5b506101fd610e1e565b005b34801561020b57600080fd5b5061022660048036038101906102219190611898565b61101e565b60405161023391906118d4565b60405180910390f35b34801561024857600080fd5b50610251611036565b60405161025e9190611908565b60405180910390f35b34801561027357600080fd5b5061027c61103c565b60405161028991906119e1565b60405180910390f35b34801561029e57600080fd5b506102b960048036038101906102b49190611898565b6110ca565b6040516102c691906118d4565b60405180910390f35b3480156102db57600080fd5b506102f660048036038101906102f191906117d7565b6110e2565b604051610304929190611a12565b60405180910390f35b34801561031957600080fd5b50610322611126565b60405161032f91906118d4565b60405180910390f35b34801561034457600080fd5b5061035f600480360381019061035a91906117d7565b61112c565b60405161036c919061181f565b60405180910390f35b34801561038157600080fd5b5061039c600480360381019061039791906117d7565b611410565b6040516103a9919061181f565b60405180910390f35b3480156103be57600080fd5b506103c7611539565b6040516103d49190611a3b565b60405180910390f35b3480156103e957600080fd5b506103f261155f565b6040516103ff9190611908565b60405180910390f35b34801561041457600080fd5b5061041d61160f565b60405161042a91906118d4565b60405180910390f35b34801561043f57600080fd5b50610448611615565b6040516104559190611908565b60405180910390f35b34801561046a57600080fd5b5061048560048036038101906104809190611898565b611636565b604051610492919061181f565b60405180910390f35b3480156104a757600080fd5b506104b0611656565b6040516104bd9190611a77565b60405180910390f35b3480156104d257600080fd5b506104db61167c565b6040516104e89190611af1565b60405180910390f35b3480156104fd57600080fd5b50610518600480360381019061051391906117d7565b6116a2565b6040516105259190611a3b565b60405180910390f35b6000805461053b90611b3b565b80601f016020809104026020016040519081016040528092919081815260200182805461056790611b3b565b80156105b45780601f10610589576101008083540402835291602001916105b4565b820191906000526020600020905b81548152906001019060200180831161059757829003601f168201915b505050505081565b60006105c6611615565b905081816105d49190611b9c565b3412156105e057600080fd5b81600860009054906101000a900473ffffffffffffffffffffffffffffffffffffffff1673ffffffffffffffffffffffffffffffffffffffff166370a08231306040518263ffffffff1660e01b815260040161063c9190611a3b565b602060405180830381865afa158015610659573d6000803e3d6000fd5b505050506040513d601f19601f8201168201806040525081019061067d9190611cc8565b101561068857600080fd5b600860009054906101000a900473ffffffffffffffffffffffffffffffffffffffff1673ffffffffffffffffffffffffffffffffffffffff1663a9059cbb33846040518363ffffffff1660e01b81526004016106e5929190611a12565b6020604051808303816000875af1158015610704573d6000803e3d6000fd5b505050506040513d601f19601f820116820180604052508101906107289190611d21565b61073157600080fd5b600760009054906101000a900473ffffffffffffffffffffffffffffffffffffffff1673ffffffffffffffffffffffffffffffffffffffff166108fc349081150290604051600060405180830381858888f19350505050158015610799573d6000803e3d6000fd5b5081600960008282546107ac9190611d4e565b9250508190555060405180604001604052803373ffffffffffffffffffffffffffffffffffffffff16815260200183815250600d6000600c54815260200190815260200160002060008201518160000160006101000a81548173ffffffffffffffffffffffffffffffffffffffff021916908373ffffffffffffffffffffffffffffffffffffffff16021790555060208201518160010155905050600c600081548092919061085a90611da4565b91905055507f5e5e995ce3133561afceaa51a9a154d5db228cd7525d34df5185582c18d3df093383604051610890929190611a12565b60405180910390a15050565b60008082116108e0576040517f08c379a00000000000000000000000000000000000000000000000000000000081526004016108d790611e39565b60405180910390fd5b600260003373ffffffffffffffffffffffffffffffffffffffff1673ffffffffffffffffffffffffffffffffffffffff16815260200190815260200160002054821115610962576040517f08c379a000000000000000000000000000000000000000000000000000000000815260040161095990611ecb565b60405180910390fd5b600360003373ffffffffffffffffffffffffffffffffffffffff1673ffffffffffffffffffffffffffffffffffffffff16815260200190815260200160002060009054906101000a900460ff166109ee576040517f08c379a00000000000000000000000000000000000000000000000000000000081526004016109e590611f5d565b60405180910390fd5b62093a80600460003373ffffffffffffffffffffffffffffffffffffffff1673ffffffffffffffffffffffffffffffffffffffff16815260200190815260200160002054610a3c9190611d4e565b421015610a7e576040517f08c379a0000000000000000000000000000000000000000000000000000000008152600401610a7590612015565b60405180910390fd5b6000600860009054906101000a900473ffffffffffffffffffffffffffffffffffffffff1673ffffffffffffffffffffffffffffffffffffffff1663a9059cbb336064600187610ace9190612035565b610ad891906120be565b86610ae39190611d4e565b6040518363ffffffff1660e01b8152600401610b00929190611a12565b6020604051808303816000875af1158015610b1f573d6000803e3d6000fd5b505050506040513d601f19601f82011682018060405250810190610b439190611d21565b905080610b54576000915050610e19565b82600260003373ffffffffffffffffffffffffffffffffffffffff1673ffffffffffffffffffffffffffffffffffffffff1681526020019081526020016000206000828254610ba391906120ef565b925050819055506000600260003373ffffffffffffffffffffffffffffffffffffffff1673ffffffffffffffffffffffffffffffffffffffff168152602001908152602001600020541415610dda5760006005905060005b8180549050811015610dd7573373ffffffffffffffffffffffffffffffffffffffff16828281548110610c3157610c30612123565b5b9060005260206000200160009054906101000a900473ffffffffffffffffffffffffffffffffffffffff1673ffffffffffffffffffffffffffffffffffffffff161415610dc4578160018380549050610c8a91906120ef565b81548110610c9b57610c9a612123565b5b9060005260206000200160009054906101000a900473ffffffffffffffffffffffffffffffffffffffff16828281548110610cd957610cd8612123565b5b9060005260206000200160006101000a81548173ffffffffffffffffffffffffffffffffffffffff021916908373ffffffffffffffffffffffffffffffffffffffff16021790555081805480610d3257610d31612152565b5b6001900381819060005260206000200160006101000a81549073ffffffffffffffffffffffffffffffffffffffff021916905590556000600360003373ffffffffffffffffffffffffffffffffffffffff1673ffffffffffffffffffffffffffffffffffffffff16815260200190815260200160002060006101000a81548160ff021916908315150217905550610dd7565b8080610dcf90611da4565b915050610bfb565b50505b7f7084f5476618d8e60b11ef0d7d3f06914655adb8793e28ff7f018d4c76d505d53384604051610e0b929190611a12565b60405180910390a160019150505b919050565b600660009054906101000a900473ffffffffffffffffffffffffffffffffffffffff1673ffffffffffffffffffffffffffffffffffffffff163373ffffffffffffffffffffffffffffffffffffffff1614610e7857600080fd5b6000600860009054906101000a900473ffffffffffffffffffffffffffffffffffffffff1673ffffffffffffffffffffffffffffffffffffffff166370a08231306040518263ffffffff1660e01b8152600401610ed59190611a3b565b602060405180830381865afa158015610ef2573d6000803e3d6000fd5b505050506040513d601f19601f82011682018060405250810190610f169190611cc8565b9050600860009054906101000a900473ffffffffffffffffffffffffffffffffffffffff1673ffffffffffffffffffffffffffffffffffffffff1663a9059cbb600660009054906101000a900473ffffffffffffffffffffffffffffffffffffffff16836040518363ffffffff1660e01b8152600401610f979291906121a2565b6020604051808303816000875af1158015610fb6573d6000803e3d6000fd5b505050506040513d601f19601f82011682018060405250810190610fda9190611d21565b610fe357600080fd5b600660009054906101000a900473ffffffffffffffffffffffffffffffffffffffff1673ffffffffffffffffffffffffffffffffffffffff16ff5b60046020528060005260406000206000915090505481565b600a5481565b606060058054806020026020016040519081016040528092919081815260200182805480156110c057602002820191906000526020600020905b8160009054906101000a900473ffffffffffffffffffffffffffffffffffffffff1673ffffffffffffffffffffffffffffffffffffffff1681526020019060010190808311611076575b5050505050905090565b60026020528060005260406000206000915090505481565b600d6020528060005260406000206000915090508060000160009054906101000a900473ffffffffffffffffffffffffffffffffffffffff16908060010154905082565b60095481565b6000808211611170576040517f08c379a000000000000000000000000000000000000000000000000000000000815260040161116790611e39565b60405180910390fd5b6000600860009054906101000a900473ffffffffffffffffffffffffffffffffffffffff1673ffffffffffffffffffffffffffffffffffffffff166323b872dd3330866040518463ffffffff1660e01b81526004016111d1939291906121cb565b6020604051808303816000875af11580156111f0573d6000803e3d6000fd5b505050506040513d601f19601f820116820180604052508101906112149190611d21565b90508061122557600091505061140b565b82600260003373ffffffffffffffffffffffffffffffffffffffff1673ffffffffffffffffffffffffffffffffffffffff16815260200190815260200160002060008282546112749190611d4e565b9250508190555042600460003373ffffffffffffffffffffffffffffffffffffffff1673ffffffffffffffffffffffffffffffffffffffff16815260200190815260200160002081905550600360003373ffffffffffffffffffffffffffffffffffffffff1673ffffffffffffffffffffffffffffffffffffffff16815260200190815260200160002060009054906101000a900460ff16611374576005339080600181540180825580915050600190039060005260206000200160009091909190916101000a81548173ffffffffffffffffffffffffffffffffffffffff021916908373ffffffffffffffffffffffffffffffffffffffff1602179055505b6001600360003373ffffffffffffffffffffffffffffffffffffffff1673ffffffffffffffffffffffffffffffffffffffff16815260200190815260200160002060006101000a81548160ff0219169083151502179055507f9e71bc8eea02a63969f509818f2dafb9254532904319f9dbda79b67bd34a5f3d33846040516113fd929190611a12565b60405180910390a160019150505b919050565b6000600160009054906101000a900473ffffffffffffffffffffffffffffffffffffffff1673ffffffffffffffffffffffffffffffffffffffff163373ffffffffffffffffffffffffffffffffffffffff16146114a2576040517f08c379a000000000000000000000000000000000000000000000000000000000815260040161149990612274565b60405180910390fd5b600082116114e5576040517f08c379a00000000000000000000000000000000000000000000000000000000081526004016114dc90612306565b60405180910390fd5b81600a5414611529576040517f08c379a000000000000000000000000000000000000000000000000000000000815260040161152090612398565b60405180910390fd5b81600a8190555060019050919050565b600160009054906101000a900473ffffffffffffffffffffffffffffffffffffffff1681565b600080600b60009054906101000a900473ffffffffffffffffffffffffffffffffffffffff1673ffffffffffffffffffffffffffffffffffffffff1663feaf968c6040518163ffffffff1660e01b815260040160a060405180830381865afa1580156115cf573d6000803e3d6000fd5b505050506040513d601f19601f820116820180604052508101906115f39190612426565b5050509150506305f5e1008161160991906124a1565b91505090565b600c5481565b60008061162061155f565b905080600a5461163091906124a1565b91505090565b60036020528060005260406000206000915054906101000a900460ff1681565b600660009054906101000a900473ffffffffffffffffffffffffffffffffffffffff1681565b600860009054906101000a900473ffffffffffffffffffffffffffffffffffffffff1681565b600581815481106116b257600080fd5b906000526020600020016000915054906101000a900473ffffffffffffffffffffffffffffffffffffffff1681565b600081519050919050565b600082825260208201905092915050565b60005b8381101561171b578082015181840152602081019050611700565b8381111561172a576000848401525b50505050565b6000601f19601f8301169050919050565b600061174c826116e1565b61175681856116ec565b93506117668185602086016116fd565b61176f81611730565b840191505092915050565b600060208201905081810360008301526117948184611741565b905092915050565b600080fd5b6000819050919050565b6117b4816117a1565b81146117bf57600080fd5b50565b6000813590506117d1816117ab565b92915050565b6000602082840312156117ed576117ec61179c565b5b60006117fb848285016117c2565b91505092915050565b60008115159050919050565b61181981611804565b82525050565b60006020820190506118346000830184611810565b92915050565b600073ffffffffffffffffffffffffffffffffffffffff82169050919050565b60006118658261183a565b9050919050565b6118758161185a565b811461188057600080fd5b50565b6000813590506118928161186c565b92915050565b6000602082840312156118ae576118ad61179c565b5b60006118bc84828501611883565b91505092915050565b6118ce816117a1565b82525050565b60006020820190506118e960008301846118c5565b92915050565b6000819050919050565b611902816118ef565b82525050565b600060208201905061191d60008301846118f9565b92915050565b600081519050919050565b600082825260208201905092915050565b6000819050602082019050919050565b6119588161185a565b82525050565b600061196a838361194f565b60208301905092915050565b6000602082019050919050565b600061198e82611923565b611998818561192e565b93506119a38361193f565b8060005b838110156119d45781516119bb888261195e565b97506119c683611976565b9250506001810190506119a7565b5085935050505092915050565b600060208201905081810360008301526119fb8184611983565b905092915050565b611a0c8161185a565b82525050565b6000604082019050611a276000830185611a03565b611a3460208301846118c5565b9392505050565b6000602082019050611a506000830184611a03565b92915050565b6000611a618261183a565b9050919050565b611a7181611a56565b82525050565b6000602082019050611a8c6000830184611a68565b92915050565b6000819050919050565b6000611ab7611ab2611aad8461183a565b611a92565b61183a565b9050919050565b6000611ac982611a9c565b9050919050565b6000611adb82611abe565b9050919050565b611aeb81611ad0565b82525050565b6000602082019050611b066000830184611ae2565b92915050565b7f4e487b7100000000000000000000000000000000000000000000000000000000600052602260045260246000fd5b60006002820490506001821680611b5357607f821691505b60208210811415611b6757611b66611b0c565b5b50919050565b7f4e487b7100000000000000000000000000000000000000000000000000000000600052601160045260246000fd5b6000611ba7826118ef565b9150611bb2836118ef565b9250827f7fffffffffffffffffffffffffffffffffffffffffffffffffffffffffffffff0482116000841360008413161615611bf157611bf0611b6d565b5b817f80000000000000000000000000000000000000000000000000000000000000000583126000841260008413161615611c2e57611c2d611b6d565b5b827f80000000000000000000000000000000000000000000000000000000000000000582126000841360008412161615611c6b57611c6a611b6d565b5b827f7fffffffffffffffffffffffffffffffffffffffffffffffffffffffffffffff0582126000841260008412161615611ca857611ca7611b6d565b5b828202905092915050565b600081519050611cc2816117ab565b92915050565b600060208284031215611cde57611cdd61179c565b5b6000611cec84828501611cb3565b91505092915050565b611cfe81611804565b8114611d0957600080fd5b50565b600081519050611d1b81611cf5565b92915050565b600060208284031215611d3757611d3661179c565b5b6000611d4584828501611d0c565b91505092915050565b6000611d59826117a1565b9150611d64836117a1565b9250827fffffffffffffffffffffffffffffffffffffffffffffffffffffffffffffffff03821115611d9957611d98611b6d565b5b828201905092915050565b6000611daf826117a1565b91507fffffffffffffffffffffffffffffffffffffffffffffffffffffffffffffffff821415611de257611de1611b6d565b5b600182019050919050565b7f416d6f756e742063616e6e6f7420626520300000000000000000000000000000600082015250565b6000611e236012836116ec565b9150611e2e82611ded565b602082019050919050565b60006020820190508181036000830152611e5281611e16565b9050919050565b7f43616e6e6f74207769746864726177206d6f7265207468616e20796f7520686160008201527f766520696e20796f7572207374616b696e672062616c616e6365000000000000602082015250565b6000611eb5603a836116ec565b9150611ec082611e59565b604082019050919050565b60006020820190508181036000830152611ee481611ea8565b9050919050565b7f43616c6c6572206d7573742068617665207374616b656420696e206f7264657260008201527f20746f20776974686472617720736f6d657468696e6700000000000000000000602082015250565b6000611f476036836116ec565b9150611f5282611eeb565b604082019050919050565b60006020820190508181036000830152611f7681611f3a565b9050919050565b7f54686520626c6f636b2074696d657374616d702073686f756c6420626520617460008201527f206c65617374203720646179206166746572207468652074696d65206f66207360208201527f74616b696e670000000000000000000000000000000000000000000000000000604082015250565b6000611fff6046836116ec565b915061200a82611f7d565b606082019050919050565b6000602082019050818103600083015261202e81611ff2565b9050919050565b6000612040826117a1565b915061204b836117a1565b9250817fffffffffffffffffffffffffffffffffffffffffffffffffffffffffffffffff048311821515161561208457612083611b6d565b5b828202905092915050565b7f4e487b7100000000000000000000000000000000000000000000000000000000600052601260045260246000fd5b60006120c9826117a1565b91506120d4836117a1565b9250826120e4576120e361208f565b5b828204905092915050565b60006120fa826117a1565b9150612105836117a1565b92508282101561211857612117611b6d565b5b828203905092915050565b7f4e487b7100000000000000000000000000000000000000000000000000000000600052603260045260246000fd5b7f4e487b7100000000000000000000000000000000000000000000000000000000600052603160045260246000fd5b600061218c82611abe565b9050919050565b61219c81612181565b82525050565b60006040820190506121b76000830185612193565b6121c460208301846118c5565b9392505050565b60006060820190506121e06000830186611a03565b6121ed6020830185611a03565b6121fa60408301846118c5565b949350505050565b7f4f6e6c7920746865206f776e6572206f662074686520746f6b656e206661726d60008201527f2063616e2063616c6c20746869732066756e6374696f6e000000000000000000602082015250565b600061225e6037836116ec565b915061226982612202565b604082019050919050565b6000602082019050818103600083015261228d81612251565b9050919050565b7f5b4f7074696f6e616c5d45786368616e676520726174652063616e206e6f742060008201527f62652073657420746f207a65726f000000000000000000000000000000000000602082015250565b60006122f0602e836116ec565b91506122fb82612294565b604082019050919050565b6000602082019050818103600083015261231f816122e3565b9050919050565b7f4e65772045786368616e67652072617465206d7573742064696666657220667260008201527f6f6d206f6c642f70726576696f75732072617465000000000000000000000000602082015250565b60006123826034836116ec565b915061238d82612326565b604082019050919050565b600060208201905081810360008301526123b181612375565b9050919050565b600069ffffffffffffffffffff82169050919050565b6123d7816123b8565b81146123e257600080fd5b50565b6000815190506123f4816123ce565b92915050565b612403816118ef565b811461240e57600080fd5b50565b600081519050612420816123fa565b92915050565b600080600080600060a086880312156124425761244161179c565b5b6000612450888289016123e5565b955050602061246188828901612411565b945050604061247288828901611cb3565b935050606061248388828901611cb3565b9250506080612494888289016123e5565b9150509295509295909350565b60006124ac826118ef565b91506124b7836118ef565b9250826124c7576124c661208f565b5b600160000383147f800000000000000000000000000000000000000000000000000000000000000083141615612500576124ff611b6d565b5b82820590509291505056fea2646970667358221220f97ff48e307429713a58cebfdf861a18c832bbd927066565f87c2043217b496864736f6c634300080c0033",
  "immutableReferences": {},
  "source": "// SPDX-License-Identifier: MIT\n\npragma solidity ^0.8.0;\n\nimport \"./YannToken.sol\";\nimport \"@chainlink/contracts/src/v0.8/interfaces/AggregatorV3Interface.sol\";\n\ncontract YannTokenSale {\n    string public name = \"Yann Farm\";\n    address public owner;\n    mapping(address => uint256) public stakingBalance;\n    mapping(address => bool) public hasStaked;\n    mapping(address => uint256) public timeOfStakingFor;\n    address[] public stakers;\n    event Staked(address by, uint256 amount);\n    event Withdrawn(address by, uint256 amount);\n\n    address payable public admin;\n    address payable private ethFunds =\n        payable(0xFE745cab1c32EA2672a5884ED978042EBEd42A68);\n    YannToken public token;\n    uint256 public tokensSold;\n    int256 public tokenPriceUSD;\n    AggregatorV3Interface internal priceFeed;\n\n    uint256 public transactionCount;\n\n    event Sell(address _buyer, uint256 _amount);\n\n    struct Transaction {\n        address buyer;\n        uint256 amount;\n    }\n\n    mapping(uint256 => Transaction) public transaction;\n\n    constructor(YannToken _token) {\n        priceFeed = AggregatorV3Interface(\n            0x9326BFA02ADD2366b30bacB125260Af641031331\n        );\n        tokenPriceUSD = 5;\n        token = _token;\n        admin = payable(msg.sender);\n        owner = msg.sender;\n    }\n\n    modifier onlyOwner() {\n        require(\n            msg.sender == owner,\n            \"Only the owner of the token farm can call this function\"\n        );\n        _;\n    }\n\n    function getETHPrice() public view returns (int256) {\n        (, int256 price, , , ) = priceFeed.latestRoundData();\n        return (price / 10**8);\n    }\n\n    function yannTokenPriceInETH() public view returns (int256) {\n        int256 ethPrice = getETHPrice();\n        return tokenPriceUSD / ethPrice;\n    }\n\n    function modifyTokenBuyPrice(uint256 _newPrice)\n        public\n        onlyOwner\n        returns (bool)\n    {\n        require(\n            _newPrice > 0,\n            \"[Optional]Exchange rate can not be set to zero\"\n        );\n        require(\n            uint256(tokenPriceUSD) == _newPrice,\n            \"New Exchange rate must differ from old/previous rate\"\n        );\n        tokenPriceUSD = int256(_newPrice);\n        return true;\n    }\n\n    function buyToken(uint256 _amount) public payable {\n        int256 yannTokenPriceETH = yannTokenPriceInETH();\n        // Check that the buyer sends the enough ETH\n        require(int256(msg.value) >= yannTokenPriceETH * int256(_amount));\n        // Check that the sale contract provides the enough ETH to make this transaction.\n        require(token.balanceOf(address(this)) >= _amount);\n        // Make the transaction inside of the require\n        // transfer returns a boolean value.\n        require(token.transfer(msg.sender, _amount));\n        // Transfer the ETH of the buyer to us\n        ethFunds.transfer(msg.value);\n        // Increase the amount of tokens sold\n        tokensSold += _amount;\n        // Increase the amount of transactions\n        transaction[transactionCount] = Transaction(msg.sender, _amount);\n        transactionCount++;\n        // Emit the Sell event\n        emit Sell(msg.sender, _amount);\n    }\n\n    function endSale() public {\n        require(msg.sender == admin);\n        // Return the tokens that were left inside of the sale contract\n        uint256 amount = token.balanceOf(address(this));\n        require(token.transfer(admin, amount));\n        selfdestruct(payable(admin));\n    }\n\n    function getStakers() public view returns (address[] memory) {\n        return stakers;\n    }\n\n    //stake tokens - investor puts money into the app (deposit)\n    function stakeTokens(uint256 _amount) public returns (bool) {\n        require(_amount > 0, \"Amount cannot be 0\");\n        //transfer mock dai tokens to this contract for staking\n\n        bool res = token.transferFrom(msg.sender, address(this), _amount);\n\n        if (!res) return false;\n        //update staking balance\n        stakingBalance[msg.sender] += _amount;\n\n        //update time of staking\n        timeOfStakingFor[msg.sender] = block.timestamp;\n\n        // add user to stakers array only if they havent staked already,\n        // because later we'd want to give them only once the issued tokens\n        if (!hasStaked[msg.sender]) {\n            stakers.push(msg.sender);\n        }\n        //update staking status\n        hasStaked[msg.sender] = true;\n\n        emit Staked(msg.sender, _amount);\n        return true;\n    }\n\n    //unstake tokens - investor withdraws money (withdraw)\n    //withdraw and arbitrary amount of tokens\n    function withdrawTokens(uint256 _amount) public returns (bool) {\n        require(_amount > 0, \"Amount cannot be 0\");\n        require(\n            _amount <= stakingBalance[msg.sender],\n            \"Cannot withdraw more than you have in your staking balance\"\n        );\n        require(\n            hasStaked[msg.sender],\n            \"Caller must have staked in order to withdraw something\"\n        );\n        //allow them to withdraw a week after their latest stake\n        require(\n            block.timestamp >= (timeOfStakingFor[msg.sender] + 7 days),\n            \"The block timestamp should be at least 7 day after the time of staking\"\n        );\n\n        //transfer 1% of the withdrawn amount for stacking\n        bool res = token.transfer(msg.sender, (_amount + (_amount * 1) / 100));\n        if (!res) return false;\n        //update staking balance\n        stakingBalance[msg.sender] -= _amount;\n\n        //if account has withdrawn everything we need to remove them from the stakers array\n        if (stakingBalance[msg.sender] == 0) {\n            address[] storage arr = stakers;\n            for (uint256 i = 0; i < arr.length; i++) {\n                if (arr[i] == msg.sender) {\n                    arr[i] = arr[arr.length - 1];\n                    arr.pop();\n                    //update staking status\n                    hasStaked[msg.sender] = false;\n                    break;\n                }\n            }\n        }\n        emit Withdrawn(msg.sender, _amount);\n        return true;\n    }\n}\n",
  "sourcePath": "C:\\Users\\HP\\Documents\\blockgames-program\\stack\\yann-coin\\contracts\\YannTokenSale.sol",
  "compiler": {
    "name": "solc",
    "version": "0.8.12+commit.f00d7308.Emscripten.clang"
  },
  "schemaVersion": "3.4.6",
  "updatedAt": "2022-03-23T18:00:24.463Z",
  "networkType": "ethereum",
  "devdoc": {
    "kind": "dev",
    "methods": {},
    "version": 1
  },
  "userdoc": {
    "kind": "user",
    "methods": {},
    "version": 1
  }
}